{
  "contractName": "Transaction",
  "abi": [
    {
      "inputs": [],
      "stateMutability": "nonpayable",
      "type": "constructor"
    },
    {
      "anonymous": false,
      "inputs": [
        {
          "indexed": true,
          "internalType": "address",
          "name": "_address",
          "type": "address"
        },
        {
          "indexed": false,
          "internalType": "uint256",
          "name": "_amount",
          "type": "uint256"
        }
      ],
      "name": "TransactionProcessed",
      "type": "event"
    },
    {
      "stateMutability": "nonpayable",
      "type": "fallback"
    },
    {
      "inputs": [
        {
          "internalType": "uint256",
          "name": "",
          "type": "uint256"
        }
      ],
      "name": "indexUsers",
      "outputs": [
        {
          "internalType": "address",
          "name": "",
          "type": "address"
        }
      ],
      "stateMutability": "view",
      "type": "function",
      "constant": true
    },
    {
      "inputs": [],
      "name": "totalAmount",
      "outputs": [
        {
          "internalType": "uint256",
          "name": "",
          "type": "uint256"
        }
      ],
      "stateMutability": "view",
      "type": "function",
      "constant": true
    },
    {
      "inputs": [],
      "name": "totalUsers",
      "outputs": [
        {
          "internalType": "uint256",
          "name": "",
          "type": "uint256"
        }
      ],
      "stateMutability": "view",
      "type": "function",
      "constant": true
    },
    {
      "inputs": [
        {
          "internalType": "address",
          "name": "",
          "type": "address"
        }
      ],
      "name": "users",
      "outputs": [
        {
          "internalType": "uint256",
          "name": "index",
          "type": "uint256"
        },
        {
          "internalType": "bool",
          "name": "registered",
          "type": "bool"
        },
        {
          "internalType": "uint256",
          "name": "balance",
          "type": "uint256"
        },
        {
          "internalType": "uint256",
          "name": "actualWei",
          "type": "uint256"
        }
      ],
      "stateMutability": "view",
      "type": "function",
      "constant": true
    },
    {
      "stateMutability": "payable",
      "type": "receive",
      "payable": true
    },
    {
      "inputs": [
        {
          "internalType": "address",
          "name": "_address",
          "type": "address"
        }
      ],
      "name": "register",
      "outputs": [],
      "stateMutability": "nonpayable",
      "type": "function"
    },
    {
      "inputs": [
        {
          "internalType": "uint256",
          "name": "_amount",
          "type": "uint256"
        }
      ],
      "name": "deposit",
      "outputs": [],
      "stateMutability": "nonpayable",
      "type": "function"
    },
    {
      "inputs": [
        {
          "internalType": "uint256",
          "name": "_amount",
          "type": "uint256"
        }
      ],
      "name": "withdraw",
      "outputs": [],
      "stateMutability": "nonpayable",
      "type": "function"
    },
    {
      "inputs": [],
      "name": "donation",
      "outputs": [],
      "stateMutability": "payable",
      "type": "function",
      "payable": true
    },
    {
      "inputs": [],
      "name": "getTotalBalance",
      "outputs": [
        {
          "internalType": "uint256",
          "name": "",
          "type": "uint256"
        }
      ],
      "stateMutability": "view",
      "type": "function",
      "constant": true
    },
    {
      "inputs": [],
      "name": "getListOfUserAddress",
      "outputs": [
        {
          "internalType": "address[]",
          "name": "",
          "type": "address[]"
        }
      ],
      "stateMutability": "view",
      "type": "function",
      "constant": true
    },
    {
      "inputs": [],
      "name": "getListOfUserBalance",
      "outputs": [
        {
          "internalType": "uint256[]",
          "name": "",
          "type": "uint256[]"
        }
      ],
      "stateMutability": "view",
      "type": "function",
      "constant": true
    }
  ],
  "bytecode": "0x608060405234801561001057600080fd5b50336000806101000a81548173ffffffffffffffffffffffffffffffffffffffff021916908373ffffffffffffffffffffffffffffffffffffffff160217905550610f11806100606000396000f3fe6080604052600436106100a05760003560e01c8063a87430ba11610064578063a87430ba146101aa578063ac39a8af14610226578063b6b55f2514610292578063bff1f9e1146102cd578063c9809f5b146102f8578063fe1e8eff1461035d576100af565b806312b58349146100be5780631a39d8ef146100e95780632e1a7d4d146101145780634420e4861461014f5780638edeb15d146101a0576100af565b366100af576100ad6103c9565b005b3480156100bb57600080fd5b50005b3480156100ca57600080fd5b506100d361053d565b6040518082815260200191505060405180910390f35b3480156100f557600080fd5b506100fe610547565b6040518082815260200191505060405180910390f35b34801561012057600080fd5b5061014d6004803603602081101561013757600080fd5b810190808035906020019092919050505061054d565b005b34801561015b57600080fd5b5061019e6004803603602081101561017257600080fd5b81019080803573ffffffffffffffffffffffffffffffffffffffff16906020019092919050505061077e565b005b6101a86103c9565b005b3480156101b657600080fd5b506101f9600480360360208110156101cd57600080fd5b81019080803573ffffffffffffffffffffffffffffffffffffffff169060200190929190505050610a69565b60405180858152602001841515815260200183815260200182815260200194505050505060405180910390f35b34801561023257600080fd5b5061023b610aa6565b6040518080602001828103825283818151815260200191508051906020019060200280838360005b8381101561027e578082015181840152602081019050610263565b505050509050019250505060405180910390f35b34801561029e57600080fd5b506102cb600480360360208110156102b557600080fd5b8101908080359060200190929190505050610b90565b005b3480156102d957600080fd5b506102e2610d81565b6040518082815260200191505060405180910390f35b34801561030457600080fd5b506103316004803603602081101561031b57600080fd5b8101908080359060200190929190505050610d87565b604051808273ffffffffffffffffffffffffffffffffffffffff16815260200191505060405180910390f35b34801561036957600080fd5b50610372610dba565b6040518080602001828103825283818151815260200191508051906020019060200280838360005b838110156103b557808201518184015260208101905061039a565b505050509050019250505060405180910390f35b33600260008273ffffffffffffffffffffffffffffffffffffffff1673ffffffffffffffffffffffffffffffffffffffff16815260200190815260200160002060010160009054906101000a900460ff1661048c576040517f08c379a000000000000000000000000000000000000000000000000000000000815260040180806020018281038252601b8152602001807f526567697374657220796f75722061646472657373206669727374000000000081525060200191505060405180910390fd5b34600260003373ffffffffffffffffffffffffffffffffffffffff1673ffffffffffffffffffffffffffffffffffffffff16815260200190815260200160002060030160008282540192505081905550346001600082825401925050819055503373ffffffffffffffffffffffffffffffffffffffff167fe848a9a1096c6a1986f56a70fb7fb3250e28b1f56d41fa97ac643492c6c853d1346040518082815260200191505060405180910390a250565b6000600454905090565b60045481565b6000339050600260008273ffffffffffffffffffffffffffffffffffffffff1673ffffffffffffffffffffffffffffffffffffffff16815260200190815260200160002060010160009054906101000a900460ff16610614576040517f08c379a000000000000000000000000000000000000000000000000000000000815260040180806020018281038252601b8152602001807f526567697374657220796f75722061646472657373206669727374000000000081525060200191505060405180910390fd5b600260008273ffffffffffffffffffffffffffffffffffffffff1673ffffffffffffffffffffffffffffffffffffffff168152602001908152602001600020600201548211156106cc576040517f08c379a00000000000000000000000000000000000000000000000000000000081526004018080602001828103825260148152602001807f496e73756666696369656e742062616c616e636500000000000000000000000081525060200191505060405180910390fd5b8160046000828254039250508190555081600260008373ffffffffffffffffffffffffffffffffffffffff1673ffffffffffffffffffffffffffffffffffffffff168152602001908152602001600020600201600082825403925050819055508073ffffffffffffffffffffffffffffffffffffffff167fe848a9a1096c6a1986f56a70fb7fb3250e28b1f56d41fa97ac643492c6c853d1836040518082815260200191505060405180910390a25050565b3373ffffffffffffffffffffffffffffffffffffffff168173ffffffffffffffffffffffffffffffffffffffff1614610802576040517f08c379a0000000000000000000000000000000000000000000000000000000008152600401808060200182810382526023815260200180610eb96023913960400191505060405180910390fd5b600260008273ffffffffffffffffffffffffffffffffffffffff1673ffffffffffffffffffffffffffffffffffffffff16815260200190815260200160002060010160009054906101000a900460ff16156108c5576040517f08c379a000000000000000000000000000000000000000000000000000000000815260040180806020018281038252601a8152602001807f4164647265737320616c7265616479207265676973746572656400000000000081525060200191505060405180910390fd5b6000600260008373ffffffffffffffffffffffffffffffffffffffff1673ffffffffffffffffffffffffffffffffffffffff168152602001908152602001600020600201819055506001600260008373ffffffffffffffffffffffffffffffffffffffff1673ffffffffffffffffffffffffffffffffffffffff16815260200190815260200160002060010160006101000a81548160ff021916908315150217905550600554600260008373ffffffffffffffffffffffffffffffffffffffff1673ffffffffffffffffffffffffffffffffffffffff168152602001908152602001600020600001819055508060036000600554815260200190815260200160002060006101000a81548173ffffffffffffffffffffffffffffffffffffffff021916908373ffffffffffffffffffffffffffffffffffffffff1602179055506005600081548092919060010191905055508073ffffffffffffffffffffffffffffffffffffffff167fe848a9a1096c6a1986f56a70fb7fb3250e28b1f56d41fa97ac643492c6c853d160006040518082815260200191505060405180910390a250565b60026020528060005260406000206000915090508060000154908060010160009054906101000a900460ff16908060020154908060030154905084565b60608060055467ffffffffffffffff81118015610ac257600080fd5b50604051908082528060200260200182016040528015610af15781602001602082028036833780820191505090505b50905060005b600554811015610b88576003600082815260200190815260200160002060009054906101000a900473ffffffffffffffffffffffffffffffffffffffff16828281518110610b4157fe5b602002602001019073ffffffffffffffffffffffffffffffffffffffff16908173ffffffffffffffffffffffffffffffffffffffff16815250508080600101915050610af7565b508091505090565b6000339050600260008273ffffffffffffffffffffffffffffffffffffffff1673ffffffffffffffffffffffffffffffffffffffff16815260200190815260200160002060010160009054906101000a900460ff16610c57576040517f08c379a000000000000000000000000000000000000000000000000000000000815260040180806020018281038252601b8152602001807f526567697374657220796f75722061646472657373206669727374000000000081525060200191505060405180910390fd5b6103e8821115610ccf576040517f08c379a000000000000000000000000000000000000000000000000000000000815260040180806020018281038252601b8152602001807f4d6178206465706f736974206f66203130303020544b206f6e6c79000000000081525060200191505060405180910390fd5b8160046000828254019250508190555081600260008373ffffffffffffffffffffffffffffffffffffffff1673ffffffffffffffffffffffffffffffffffffffff168152602001908152602001600020600201600082825401925050819055508073ffffffffffffffffffffffffffffffffffffffff167fe848a9a1096c6a1986f56a70fb7fb3250e28b1f56d41fa97ac643492c6c853d1836040518082815260200191505060405180910390a25050565b60055481565b60036020528060005260406000206000915054906101000a900473ffffffffffffffffffffffffffffffffffffffff1681565b60608060055467ffffffffffffffff81118015610dd657600080fd5b50604051908082528060200260200182016040528015610e055781602001602082028036833780820191505090505b50905060005b600554811015610eb057600260006003600084815260200190815260200160002060009054906101000a900473ffffffffffffffffffffffffffffffffffffffff1673ffffffffffffffffffffffffffffffffffffffff1673ffffffffffffffffffffffffffffffffffffffff16815260200190815260200160002060020154828281518110610e9757fe5b6020026020010181815250508080600101915050610e0b565b50809150509056fe4f6e6c7920726567697374657265642061646472657373206973207265717569726564a2646970667358221220907a63f7fd1afb30ac0dcf21c36805efdc9f9b88ceda36058394e251dcf23b0d64736f6c634300060c0033",
  "source": "// SPDX-License-Identifier: MIT\npragma solidity ^0.6.0;\n\n    struct User{\n        uint index;\n        bool registered;\n        uint balance;\n        uint actualWei;\n    }\n\ncontract Transaction {\n\n    address payable owner;\n    uint totalWei;\n\n    mapping(address => User) public users;\n    mapping(uint => address) public indexUsers;\n    uint public totalAmount;\n    uint public totalUsers;\n\n    event TransactionProcessed(address indexed _address, uint _amount);\n\n    constructor() public {\n        owner = msg.sender;\n    }\n\n    modifier onlyRegisteredUser(address _processingUser) {\n        require(users[_processingUser].registered, \"Register your address first\");\n        _;\n    }\n\n    function register(address _address) public{\n        require(_address == msg.sender, \"Only registered address is required\");\n        require(!users[_address].registered, \"Address already registered\");\n        users[_address].balance = 0;\n        users[_address].registered = true;\n        users[_address].index = totalUsers;\n        indexUsers[totalUsers] = _address;\n        totalUsers++;\n\n        emit TransactionProcessed(_address, 0);\n    }\n\n    function deposit(uint _amount) public {\n        address _processingUser = msg.sender;\n        require(users[_processingUser].registered, \"Register your address first\");\n        require(_amount <= 1000, \"Max deposit of 1000 TK only\");\n        totalAmount+=_amount;\n        users[_processingUser].balance += _amount;\n\n        emit TransactionProcessed(_processingUser, _amount);\n    }\n\n    function withdraw(uint _amount) public {\n        address _processingUser = msg.sender;\n        require(users[_processingUser].registered, \"Register your address first\");\n        require(_amount <= users[_processingUser].balance, \"Insufficient balance\");\n        totalAmount-=_amount;\n        users[_processingUser].balance -= _amount;\n\n        emit TransactionProcessed(_processingUser, _amount);\n    }\n\n    function donation() public payable onlyRegisteredUser(msg.sender){\n        users[msg.sender].actualWei += msg.value;\n        totalWei+=msg.value;\n        emit TransactionProcessed(msg.sender, msg.value);\n    }\n\n    function getTotalBalance() public view returns(uint){\n        return totalAmount;\n    }\n\n    function getListOfUserAddress() public view returns(address[] memory){\n        address[] memory result = new address[](totalUsers);\n        for(uint i=0; i<totalUsers; i++){\n            result[i] = indexUsers[i];\n        }\n        return result;\n    }\n\n    function getListOfUserBalance() public view returns(uint[] memory){\n        uint[] memory result = new uint[](totalUsers);\n        for(uint i=0; i<totalUsers; i++){\n            result[i] = users[indexUsers[i]].balance;\n        }\n        return result;\n    }\n\n    receive() external payable{\n        donation();\n    }\n\n    fallback() external{}\n\n}\n",
  "sourcePath": "/home/adel/Desktop/simple_crypto_transaction/contracts/Transaction.sol",
  "compiler": {
    "name": "solc",
    "version": "0.6.12+commit.27d51765.Emscripten.clang"
  },
  "schemaVersion": "3.0.20",
  "updatedAt": "2022-03-12T18:23:29.975Z",
  "networkType": "ethereum",
  "devdoc": {
    "kind": "dev",
    "methods": {},
    "version": 1
  },
  "userdoc": {
    "kind": "user",
    "methods": {},
    "version": 1
  }
}